{
  "abi": [
    {
      "inputs": [
        {
          "internalType": "uint256",
          "name": "_merkleRoot",
          "type": "uint256"
        }
      ],
      "stateMutability": "nonpayable",
      "type": "constructor"
    },
    {
      "anonymous": false,
      "inputs": [
        {
          "indexed": true,
          "internalType": "address",
          "name": "owner",
          "type": "address"
        },
        {
          "indexed": true,
          "internalType": "address",
          "name": "approved",
          "type": "address"
        },
        {
          "indexed": true,
          "internalType": "uint256",
          "name": "tokenId",
          "type": "uint256"
        }
      ],
      "name": "Approval",
      "type": "event"
    },
    {
      "anonymous": false,
      "inputs": [
        {
          "indexed": true,
          "internalType": "address",
          "name": "owner",
          "type": "address"
        },
        {
          "indexed": true,
          "internalType": "address",
          "name": "operator",
          "type": "address"
        },
        {
          "indexed": false,
          "internalType": "bool",
          "name": "approved",
          "type": "bool"
        }
      ],
      "name": "ApprovalForAll",
      "type": "event"
    },
    {
      "anonymous": false,
      "inputs": [
        {
          "indexed": true,
          "internalType": "address",
          "name": "from",
          "type": "address"
        },
        {
          "indexed": true,
          "internalType": "address",
          "name": "to",
          "type": "address"
        },
        {
          "indexed": true,
          "internalType": "uint256",
          "name": "tokenId",
          "type": "uint256"
        }
      ],
      "name": "Transfer",
      "type": "event"
    },
    {
      "inputs": [
        {
          "internalType": "uint256[2]",
          "name": "_pA",
          "type": "uint256[2]"
        },
        {
          "internalType": "uint256[2][2]",
          "name": "_pB",
          "type": "uint256[2][2]"
        },
        {
          "internalType": "uint256[2]",
          "name": "_pC",
          "type": "uint256[2]"
        },
        {
          "internalType": "uint256[5]",
          "name": "_pubSignals",
          "type": "uint256[5]"
        }
      ],
      "name": "_verifyProof",
      "outputs": [
        {
          "internalType": "bool",
          "name": "",
          "type": "bool"
        }
      ],
      "stateMutability": "view",
      "type": "function"
    },
    {
      "inputs": [
        {
          "internalType": "address",
          "name": "to",
          "type": "address"
        },
        {
          "internalType": "uint256",
          "name": "tokenId",
          "type": "uint256"
        }
      ],
      "name": "approve",
      "outputs": [],
      "stateMutability": "nonpayable",
      "type": "function"
    },
    {
      "inputs": [
        {
          "internalType": "address",
          "name": "owner",
          "type": "address"
        }
      ],
      "name": "balanceOf",
      "outputs": [
        {
          "internalType": "uint256",
          "name": "",
          "type": "uint256"
        }
      ],
      "stateMutability": "view",
      "type": "function"
    },
    {
      "inputs": [
        {
          "internalType": "uint256",
          "name": "tokenId",
          "type": "uint256"
        }
      ],
      "name": "getApproved",
      "outputs": [
        {
          "internalType": "address",
          "name": "",
          "type": "address"
        }
      ],
      "stateMutability": "view",
      "type": "function"
    },
    {
      "inputs": [
        {
          "internalType": "address",
          "name": "owner",
          "type": "address"
        },
        {
          "internalType": "address",
          "name": "operator",
          "type": "address"
        }
      ],
      "name": "isApprovedForAll",
      "outputs": [
        {
          "internalType": "bool",
          "name": "",
          "type": "bool"
        }
      ],
      "stateMutability": "view",
      "type": "function"
    },
    {
      "inputs": [],
      "name": "merkleRoot",
      "outputs": [
        {
          "internalType": "uint256",
          "name": "",
          "type": "uint256"
        }
      ],
      "stateMutability": "view",
      "type": "function"
    },
    {
      "inputs": [
        {
          "internalType": "address",
          "name": "to",
          "type": "address"
        },
        {
          "internalType": "uint256",
          "name": "tokenId",
          "type": "uint256"
        },
        {
          "internalType": "uint256[2]",
          "name": "_pA",
          "type": "uint256[2]"
        },
        {
          "internalType": "uint256[2][2]",
          "name": "_pB",
          "type": "uint256[2][2]"
        },
        {
          "internalType": "uint256[2]",
          "name": "_pC",
          "type": "uint256[2]"
        },
        {
          "internalType": "uint256[5]",
          "name": "_pubSignals",
          "type": "uint256[5]"
        }
      ],
      "name": "mint",
      "outputs": [],
      "stateMutability": "nonpayable",
      "type": "function"
    },
    {
      "inputs": [],
      "name": "name",
      "outputs": [
        {
          "internalType": "string",
          "name": "",
          "type": "string"
        }
      ],
      "stateMutability": "view",
      "type": "function"
    },
    {
      "inputs": [
        {
          "internalType": "uint256",
          "name": "tokenId",
          "type": "uint256"
        }
      ],
      "name": "ownerOf",
      "outputs": [
        {
          "internalType": "address",
          "name": "",
          "type": "address"
        }
      ],
      "stateMutability": "view",
      "type": "function"
    },
    {
      "inputs": [
        {
          "internalType": "address",
          "name": "from",
          "type": "address"
        },
        {
          "internalType": "address",
          "name": "to",
          "type": "address"
        },
        {
          "internalType": "uint256",
          "name": "tokenId",
          "type": "uint256"
        }
      ],
      "name": "safeTransferFrom",
      "outputs": [],
      "stateMutability": "nonpayable",
      "type": "function"
    },
    {
      "inputs": [
        {
          "internalType": "address",
          "name": "from",
          "type": "address"
        },
        {
          "internalType": "address",
          "name": "to",
          "type": "address"
        },
        {
          "internalType": "uint256",
          "name": "tokenId",
          "type": "uint256"
        },
        {
          "internalType": "bytes",
          "name": "data",
          "type": "bytes"
        }
      ],
      "name": "safeTransferFrom",
      "outputs": [],
      "stateMutability": "nonpayable",
      "type": "function"
    },
    {
      "inputs": [
        {
          "internalType": "address",
          "name": "operator",
          "type": "address"
        },
        {
          "internalType": "bool",
          "name": "approved",
          "type": "bool"
        }
      ],
      "name": "setApprovalForAll",
      "outputs": [],
      "stateMutability": "nonpayable",
      "type": "function"
    },
    {
      "inputs": [
        {
          "internalType": "bytes4",
          "name": "interfaceId",
          "type": "bytes4"
        }
      ],
      "name": "supportsInterface",
      "outputs": [
        {
          "internalType": "bool",
          "name": "",
          "type": "bool"
        }
      ],
      "stateMutability": "view",
      "type": "function"
    },
    {
      "inputs": [],
      "name": "symbol",
      "outputs": [
        {
          "internalType": "string",
          "name": "",
          "type": "string"
        }
      ],
      "stateMutability": "view",
      "type": "function"
    },
    {
      "inputs": [
        {
          "internalType": "uint256",
          "name": "tokenId",
          "type": "uint256"
        }
      ],
      "name": "tokenURI",
      "outputs": [
        {
          "internalType": "string",
          "name": "",
          "type": "string"
        }
      ],
      "stateMutability": "view",
      "type": "function"
    },
    {
      "inputs": [
        {
          "internalType": "address",
          "name": "from",
          "type": "address"
        },
        {
          "internalType": "address",
          "name": "to",
          "type": "address"
        },
        {
          "internalType": "uint256",
          "name": "tokenId",
          "type": "uint256"
        }
      ],
      "name": "transferFrom",
      "outputs": [],
      "stateMutability": "nonpayable",
      "type": "function"
    },
    {
      "inputs": [
        {
          "internalType": "uint256[2]",
          "name": "_pA",
          "type": "uint256[2]"
        },
        {
          "internalType": "uint256[2][2]",
          "name": "_pB",
          "type": "uint256[2][2]"
        },
        {
          "internalType": "uint256[2]",
          "name": "_pC",
          "type": "uint256[2]"
        },
        {
          "internalType": "uint256[5]",
          "name": "_pubSignals",
          "type": "uint256[5]"
        }
      ],
      "name": "verifyProof",
      "outputs": [
        {
          "internalType": "bool",
          "name": "",
          "type": "bool"
        }
      ],
      "stateMutability": "view",
      "type": "function"
    }
  ],
  "bytecode": {
    "object": "0x60806040523480156200001157600080fd5b5060405162001de438038062001de48339810160408190526200003491620000a0565b6040518060400160405280600a81526020016920b737b726b4b73a32b960b11b8152506040518060400160405280600481526020016320a727a760e11b81525081600090816200008591906200015f565b5060016200009482826200015f565b5050506006556200022b565b600060208284031215620000b357600080fd5b5051919050565b634e487b7160e01b600052604160045260246000fd5b600181811c90821680620000e557607f821691505b6020821081036200010657634e487b7160e01b600052602260045260246000fd5b50919050565b601f8211156200015a57600081815260208120601f850160051c81016020861015620001355750805b601f850160051c820191505b81811015620001565782815560010162000141565b5050505b505050565b81516001600160401b038111156200017b576200017b620000ba565b62000193816200018c8454620000d0565b846200010c565b602080601f831160018114620001cb5760008415620001b25750858301515b600019600386901b1c1916600185901b17855562000156565b600085815260208120601f198616915b82811015620001fc57888601518255948401946001909101908401620001db565b50858210156200021b5787850151600019600388901b60f8161c191681555b5050505050600190811b01905550565b611ba9806200023b6000396000f3fe608060405234801561001057600080fd5b506004361061010b5760003560e01c806342842e0e116100a257806395d89b411161007157806395d89b4114610229578063a22cb46514610231578063b88d4fde14610244578063c87b56dd14610257578063e985e9c51461026a57600080fd5b806342842e0e146101dd5780635b0797f4146101f05780636352211e1461020357806370a082311461021657600080fd5b8063227cc392116100de578063227cc3921461018d57806323b872dd146101a05780632eb4a7ab146101b357806334baeab9146101ca57600080fd5b806301ffc9a71461011057806306fdde0314610138578063081812fc1461014d578063095ea7b314610178575b600080fd5b61012361011e3660046115c2565b61027d565b60405190151581526020015b60405180910390f35b6101406102cf565b60405161012f919061162f565b61016061015b366004611642565b610361565b6040516001600160a01b03909116815260200161012f565b61018b610186366004611677565b610388565b005b61018b61019b3660046116d4565b6104a2565b61018b6101ae366004611748565b6105c3565b6101bc60065481565b60405190815260200161012f565b6101236101d8366004611784565b6105f4565b61018b6101eb366004611748565b61060d565b6101236101fe366004611784565b610628565b610160610211366004611642565b610bfd565b6101bc6102243660046117de565b610c5d565b610140610ce3565b61018b61023f366004611807565b610cf2565b61018b610252366004611854565b610d01565b610140610265366004611642565b610d39565b610123610278366004611930565b610dad565b60006001600160e01b031982166380ac58cd60e01b14806102ae57506001600160e01b03198216635b5e139f60e01b145b806102c957506301ffc9a760e01b6001600160e01b03198316145b92915050565b6060600080546102de90611963565b80601f016020809104026020016040519081016040528092919081815260200182805461030a90611963565b80156103575780601f1061032c57610100808354040283529160200191610357565b820191906000526020600020905b81548152906001019060200180831161033a57829003601f168201915b5050505050905090565b600061036c82610ddb565b506000908152600460205260409020546001600160a01b031690565b600061039382610bfd565b9050806001600160a01b0316836001600160a01b0316036104055760405162461bcd60e51b815260206004820152602160248201527f4552433732313a20617070726f76616c20746f2063757272656e74206f776e656044820152603960f91b60648201526084015b60405180910390fd5b336001600160a01b038216148061042157506104218133610dad565b6104935760405162461bcd60e51b815260206004820152603d60248201527f4552433732313a20617070726f76652063616c6c6572206973206e6f7420746f60448201527f6b656e206f776e6572206f7220617070726f76656420666f7220616c6c00000060648201526084016103fc565b61049d8383610e3a565b505050565b60065481906080820135146104f95760405162461bcd60e51b815260206004820152601a60248201527f4d65726b6c6520726f6f7420646f6573206e6f74206d6174636800000000000060448201526064016103fc565b84848484306001600160a01b0316635b0797f4858585856040518563ffffffff1660e01b815260040161052f949392919061199d565b602060405180830381865afa15801561054c573d6000803e3d6000fd5b505050506040513d601f19601f8201168201806040525081019061057091906119e9565b6105ac5760405162461bcd60e51b815260206004820152600d60248201526c24b73b30b634b210383937b7b360991b60448201526064016103fc565b6105b68b8b610ea8565b5050505050505050505050565b6105cd3382610ec2565b6105e95760405162461bcd60e51b81526004016103fc90611a06565b61049d838383610f20565b600061060285858585610628565b90505b949350505050565b61049d83838360405180602001604052806000815250610d01565b6000610b8b565b7f30644e72e131a029b85045b68181585d97816a916871ca8d3c208c16d87cfd478110610660576000805260206000f35b50565b600060405183815284602082015285604082015260408160608360076107d05a03fa915081610696576000805260206000f35b825160408201526020830151606082015260408360808360066107d05a03fa915050806106c7576000805260206000f35b5050505050565b7f21ffd944c4a0cd444b20e8fcb8d691584672a22883970a1f3c4342192b9b621185527f123a56a984bd0a15452efd291e792a55f2828c2b0ffbf018ffbb512e4e99299a60208601526000608086018661076b87357f2d51c5e7ffed5232c3ccc58d3b022bbed035aa172ed7b3b7c484d8f39a53c78c7f0ba5a7ccf7c9cb1d0873f9642448989e8d6955532ae919a6f7f392d520ebd09884610663565b6107bb60208801357f27f50f9362c01039a887a17282765ab64e7a2c836e4841b488837242471c9d257f28631ba22df69d042b62824ceb40603baab03ccf293bd7e2009a2bd20022029884610663565b61080b60408801357f0815b867bb52bd2482d816a1fe3c32679a5f73d769980d7b0aabef03e6f06bb97f2160d0b42d284f21744ff56688b14f1eab2bc759d70bcbd4688285a15ee28ac084610663565b61085b60608801357f245c4804a8091bd243fc34d6d9735da1e4608506b821dbd2a93167d168cc3dd67f2156ec6f94013fd89983e3580d3642e92d8c6e37b4263089e7db264ebd767da884610663565b6108ab60808801357f1f76b07d6403a9341d3ce0a79fa498b8294196434848f474547ca86691130eef7f2e05476f077a54dbb67eaf79460e41617cae3f79bc1480b8d1277b8fe86f573784610663565b50823581527f30644e72e131a029b85045b68181585d97816a916871ca8d3c208c16d87cfd4760208401357f30644e72e131a029b85045b68181585d97816a916871ca8d3c208c16d87cfd4703066020820152833560408201526020840135606082015260408401356080820152606084013560a08201527f2d4d9aa7e302d9df41749d5507949d05dbea33fbb16c643b22f599a2be6df2e260c08201527f14bedd503c37ceb061d8ec60209fe345ce89830a19230301f076caff004d192660e08201527f0967032fcbf776d1afc985f88877f182d38480a653f2decaa9794cbc3bf3060c6101008201527f0e187847ad4c798374d0d6732bf501847dd68bc0e071241e0213bc7fc13db7ab6101208201527f304cfbd1e08a704a99f5e847d93f8c3caafddec46b7a0d379da69a4d112346a76101408201527f1739c1b1a457a8c7313123d24d2f9192f896b7c63eea05a9d57f06547ad0cec8610160820152600087015161018082015260206000018701516101a08201527f198e9393920d483a7260bfb731fb5d25f1aa493335a9e71297e485b7aef312c26101c08201527f1800deef121f1e76426a00665e5c4479674322d4f75edadd46debd5cd992f6ed6101e08201527f090689d0585ff075ec9e99ad690c3395bc4b313370b38ef355acdadcd122975b6102008201527f12c85ea5db8c6deb4aab71808dcb408fe3d1e7690c43d37b4ce6cc0166fa7daa610220820152843561024082015260208501356102608201527f05b734cecca0099aa22dbc0bda4e15ddd9039d99747a6ee1a16886b6f1f61f9f6102808201527f10b52a28ee4d2681308d1f8bd902f46f13bd6599be6766e7b3b42e48c9c9c7686102a08201527f2ee9dc156b3f2e7debd5db898e3f117bd2198f157173d74dc70f7df881b722346102c08201527f156bdef96d2331b8d83c6851b1dbb59e529209cea0824a11f8fb0c18f2243b056102e08201526020816103008360086107d05a03fa9051169695505050505050565b6040516103808101604052610ba3600084013561062f565b610bb0602084013561062f565b610bbd604084013561062f565b610bca606084013561062f565b610bd7608084013561062f565b610be460a084013561062f565b610bf1818486888a6106ce565b90508060005260206000f35b6000818152600260205260408120546001600160a01b0316806102c95760405162461bcd60e51b8152602060048201526018602482015277115490cdcc8c4e881a5b9d985b1a59081d1bdad95b88125160421b60448201526064016103fc565b60006001600160a01b038216610cc75760405162461bcd60e51b815260206004820152602960248201527f4552433732313a2061646472657373207a65726f206973206e6f7420612076616044820152683634b21037bbb732b960b91b60648201526084016103fc565b506001600160a01b031660009081526003602052604090205490565b6060600180546102de90611963565b610cfd338383611084565b5050565b610d0b3383610ec2565b610d275760405162461bcd60e51b81526004016103fc90611a06565b610d3384848484611152565b50505050565b6060610d4482610ddb565b6000610d5b60408051602081019091526000815290565b90506000815111610d7b5760405180602001604052806000815250610da6565b80610d8584611185565b604051602001610d96929190611a53565b6040516020818303038152906040525b9392505050565b6001600160a01b03918216600090815260056020908152604080832093909416825291909152205460ff1690565b6000818152600260205260409020546001600160a01b03166106605760405162461bcd60e51b8152602060048201526018602482015277115490cdcc8c4e881a5b9d985b1a59081d1bdad95b88125160421b60448201526064016103fc565b600081815260046020526040902080546001600160a01b0319166001600160a01b0384169081179091558190610e6f82610bfd565b6001600160a01b03167f8c5be1e5ebec7d5bd14f71427d1e84f3dd0314c0f7b2291e5b200ac8c7c3b92560405160405180910390a45050565b610cfd828260405180602001604052806000815250611218565b600080610ece83610bfd565b9050806001600160a01b0316846001600160a01b03161480610ef55750610ef58185610dad565b806106055750836001600160a01b0316610f0e84610361565b6001600160a01b031614949350505050565b826001600160a01b0316610f3382610bfd565b6001600160a01b031614610f595760405162461bcd60e51b81526004016103fc90611a82565b6001600160a01b038216610fbb5760405162461bcd60e51b8152602060048201526024808201527f4552433732313a207472616e7366657220746f20746865207a65726f206164646044820152637265737360e01b60648201526084016103fc565b826001600160a01b0316610fce82610bfd565b6001600160a01b031614610ff45760405162461bcd60e51b81526004016103fc90611a82565b600081815260046020908152604080832080546001600160a01b03199081169091556001600160a01b0387811680865260038552838620805460001901905590871680865283862080546001019055868652600290945282852080549092168417909155905184937fddf252ad1be2c89b69c2b068fc378daa952ba7f163c4a11628f55a4df523b3ef91a4505050565b816001600160a01b0316836001600160a01b0316036110e55760405162461bcd60e51b815260206004820152601960248201527f4552433732313a20617070726f766520746f2063616c6c65720000000000000060448201526064016103fc565b6001600160a01b03838116600081815260056020908152604080832094871680845294825291829020805460ff191686151590811790915591519182527f17307eab39ab6107e8899845ad3d59bd9653f200f220920489ca2b5937696c31910160405180910390a3505050565b61115d848484610f20565b6111698484848461124b565b610d335760405162461bcd60e51b81526004016103fc90611ac7565b6060600061119283611349565b600101905060008167ffffffffffffffff8111156111b2576111b261183e565b6040519080825280601f01601f1916602001820160405280156111dc576020820181803683370190505b5090508181016020015b600019016f181899199a1a9b1b9c1cb0b131b232b360811b600a86061a8153600a85049450846111e657509392505050565b6112228383611421565b61122f600084848461124b565b61049d5760405162461bcd60e51b81526004016103fc90611ac7565b60006001600160a01b0384163b1561134157604051630a85bd0160e11b81526001600160a01b0385169063150b7a029061128f903390899088908890600401611b19565b6020604051808303816000875af19250505080156112ca575060408051601f3d908101601f191682019092526112c791810190611b56565b60015b611327573d8080156112f8576040519150601f19603f3d011682016040523d82523d6000602084013e6112fd565b606091505b50805160000361131f5760405162461bcd60e51b81526004016103fc90611ac7565b805181602001fd5b6001600160e01b031916630a85bd0160e11b149050610605565b506001610605565b60008072184f03e93ff9f4daa797ed6e38ed64bf6a1f0160401b83106113885772184f03e93ff9f4daa797ed6e38ed64bf6a1f0160401b830492506040015b6d04ee2d6d415b85acef810000000083106113b4576d04ee2d6d415b85acef8100000000830492506020015b662386f26fc1000083106113d257662386f26fc10000830492506010015b6305f5e10083106113ea576305f5e100830492506008015b61271083106113fe57612710830492506004015b60648310611410576064830492506002015b600a83106102c95760010192915050565b6001600160a01b0382166114775760405162461bcd60e51b815260206004820181905260248201527f4552433732313a206d696e7420746f20746865207a65726f206164647265737360448201526064016103fc565b6000818152600260205260409020546001600160a01b0316156114dc5760405162461bcd60e51b815260206004820152601c60248201527f4552433732313a20746f6b656e20616c7265616479206d696e7465640000000060448201526064016103fc565b6000818152600260205260409020546001600160a01b0316156115415760405162461bcd60e51b815260206004820152601c60248201527f4552433732313a20746f6b656e20616c7265616479206d696e7465640000000060448201526064016103fc565b6001600160a01b038216600081815260036020908152604080832080546001019055848352600290915280822080546001600160a01b0319168417905551839291907fddf252ad1be2c89b69c2b068fc378daa952ba7f163c4a11628f55a4df523b3ef908290a45050565b6001600160e01b03198116811461066057600080fd5b6000602082840312156115d457600080fd5b8135610da6816115ac565b60005b838110156115fa5781810151838201526020016115e2565b50506000910152565b6000815180845261161b8160208601602086016115df565b601f01601f19169290920160200192915050565b602081526000610da66020830184611603565b60006020828403121561165457600080fd5b5035919050565b80356001600160a01b038116811461167257600080fd5b919050565b6000806040838503121561168a57600080fd5b6116938361165b565b946020939093013593505050565b80604081018310156102c957600080fd5b80608081018310156102c957600080fd5b8060a081018310156102c957600080fd5b6000806000806000806101e087890312156116ee57600080fd5b6116f78761165b565b95506020870135945061170d88604089016116a1565b935061171c88608089016116b2565b925061172c8861010089016116a1565b915061173c8861014089016116c3565b90509295509295509295565b60008060006060848603121561175d57600080fd5b6117668461165b565b92506117746020850161165b565b9150604084013590509250925092565b6000806000806101a0858703121561179b57600080fd5b6117a586866116a1565b93506117b486604087016116b2565b92506117c38660c087016116a1565b91506117d38661010087016116c3565b905092959194509250565b6000602082840312156117f057600080fd5b610da68261165b565b801515811461066057600080fd5b6000806040838503121561181a57600080fd5b6118238361165b565b91506020830135611833816117f9565b809150509250929050565b634e487b7160e01b600052604160045260246000fd5b6000806000806080858703121561186a57600080fd5b6118738561165b565b93506118816020860161165b565b925060408501359150606085013567ffffffffffffffff808211156118a557600080fd5b818701915087601f8301126118b957600080fd5b8135818111156118cb576118cb61183e565b604051601f8201601f19908116603f011681019083821181831017156118f3576118f361183e565b816040528281528a602084870101111561190c57600080fd5b82602086016020830137600060208483010152809550505050505092959194509250565b6000806040838503121561194357600080fd5b61194c8361165b565b915061195a6020840161165b565b90509250929050565b600181811c9082168061197757607f821691505b60208210810361199757634e487b7160e01b600052602260045260246000fd5b50919050565b6101a081016040808784378083018660005b60028110156119cc578382843791830191908301906001016119af565b505050808560c08501375060a08361010084013795945050505050565b6000602082840312156119fb57600080fd5b8151610da6816117f9565b6020808252602d908201527f4552433732313a2063616c6c6572206973206e6f7420746f6b656e206f776e6560408201526c1c881bdc88185c1c1c9bdd9959609a1b606082015260800190565b60008351611a658184602088016115df565b835190830190611a798183602088016115df565b01949350505050565b60208082526025908201527f4552433732313a207472616e736665722066726f6d20696e636f72726563742060408201526437bbb732b960d91b606082015260800190565b60208082526032908201527f4552433732313a207472616e7366657220746f206e6f6e20455243373231526560408201527131b2b4bb32b91034b6b83632b6b2b73a32b960711b606082015260800190565b6001600160a01b0385811682528416602082015260408101839052608060608201819052600090611b4c90830184611603565b9695505050505050565b600060208284031215611b6857600080fd5b8151610da6816115ac56fea26469706673582212201c1816daa81cd724de7ee93f0238f55eb0a0f5784e786dd25a02d3e2e0a3baf264736f6c63430008140033",
    "linkReferences": {}
  },
  "methodIdentifiers": {
    "_verifyProof(uint256[2],uint256[2][2],uint256[2],uint256[5])": "5b0797f4",
    "approve(address,uint256)": "095ea7b3",
    "balanceOf(address)": "70a08231",
    "getApproved(uint256)": "081812fc",
    "isApprovedForAll(address,address)": "e985e9c5",
    "merkleRoot()": "2eb4a7ab",
    "mint(address,uint256,uint256[2],uint256[2][2],uint256[2],uint256[5])": "227cc392",
    "name()": "06fdde03",
    "ownerOf(uint256)": "6352211e",
    "safeTransferFrom(address,address,uint256)": "42842e0e",
    "safeTransferFrom(address,address,uint256,bytes)": "b88d4fde",
    "setApprovalForAll(address,bool)": "a22cb465",
    "supportsInterface(bytes4)": "01ffc9a7",
    "symbol()": "95d89b41",
    "tokenURI(uint256)": "c87b56dd",
    "transferFrom(address,address,uint256)": "23b872dd",
    "verifyProof(uint256[2],uint256[2][2],uint256[2],uint256[5])": "34baeab9"
  },
  "id": 28
}