{
  "abi": [
    {
      "inputs": [
        {
          "internalType": "uint256",
          "name": "_merkleRoot",
          "type": "uint256"
        }
      ],
      "stateMutability": "nonpayable",
      "type": "constructor"
    },
    {
      "inputs": [
        {
          "internalType": "uint256[2]",
          "name": "_pA",
          "type": "uint256[2]"
        },
        {
          "internalType": "uint256[2][2]",
          "name": "_pB",
          "type": "uint256[2][2]"
        },
        {
          "internalType": "uint256[2]",
          "name": "_pC",
          "type": "uint256[2]"
        },
        {
          "internalType": "uint256[5]",
          "name": "_pubSignals",
          "type": "uint256[5]"
        }
      ],
      "name": "_verifyProof",
      "outputs": [
        {
          "internalType": "bool",
          "name": "",
          "type": "bool"
        }
      ],
      "stateMutability": "view",
      "type": "function"
    },
    {
      "inputs": [],
      "name": "merkleRoot",
      "outputs": [
        {
          "internalType": "uint256",
          "name": "",
          "type": "uint256"
        }
      ],
      "stateMutability": "view",
      "type": "function"
    },
    {
      "inputs": [
        {
          "internalType": "uint256[2]",
          "name": "_pA",
          "type": "uint256[2]"
        },
        {
          "internalType": "uint256[2][2]",
          "name": "_pB",
          "type": "uint256[2][2]"
        },
        {
          "internalType": "uint256[2]",
          "name": "_pC",
          "type": "uint256[2]"
        },
        {
          "internalType": "uint256[5]",
          "name": "_pubSignals",
          "type": "uint256[5]"
        }
      ],
      "name": "verify",
      "outputs": [
        {
          "internalType": "bool",
          "name": "",
          "type": "bool"
        }
      ],
      "stateMutability": "view",
      "type": "function"
    },
    {
      "inputs": [
        {
          "internalType": "uint256[2]",
          "name": "_pA",
          "type": "uint256[2]"
        },
        {
          "internalType": "uint256[2][2]",
          "name": "_pB",
          "type": "uint256[2][2]"
        },
        {
          "internalType": "uint256[2]",
          "name": "_pC",
          "type": "uint256[2]"
        },
        {
          "internalType": "uint256[5]",
          "name": "_pubSignals",
          "type": "uint256[5]"
        }
      ],
      "name": "verifyProof",
      "outputs": [
        {
          "internalType": "bool",
          "name": "",
          "type": "bool"
        }
      ],
      "stateMutability": "view",
      "type": "function"
    }
  ],
  "bytecode": {
    "object": "0x608060405234801561001057600080fd5b506040516108f93803806108f983398101604081905261002f91610037565b600055610050565b60006020828403121561004957600080fd5b5051919050565b61089a8061005f6000396000f3fe608060405234801561001057600080fd5b506004361061004c5760003560e01c80632eb4a7ab1461005157806334baeab91461006d578063384e058a146100905780635b0797f4146100a3575b600080fd5b61005a60005481565b6040519081526020015b60405180910390f35b61008061007b366004610789565b6100b6565b6040519015158152602001610064565b61008061009e366004610789565b6100cd565b6100806100b1366004610789565b61019d565b60006100c48585858561019d565b95945050505050565b6000805482906080820135146101295760405162461bcd60e51b815260206004820152601a60248201527f4d65726b6c6520726f6f7420646f6573206e6f74206d61746368000000000000604482015260640160405180910390fd5b6040516316c1e5fd60e21b81523090635b0797f4906101529089908990899089906004016107ef565b602060405180830381865afa15801561016f573d6000803e3d6000fd5b505050506040513d601f19601f82011682018060405250810190610193919061083b565b9695505050505050565b6000610700565b7f30644e72e131a029b85045b68181585d97816a916871ca8d3c208c16d87cfd4781106101d5576000805260206000f35b50565b600060405183815284602082015285604082015260408160608360076107d05a03fa91508161020b576000805260206000f35b825160408201526020830151606082015260408360808360066107d05a03fa9150508061023c576000805260206000f35b5050505050565b7f21ffd944c4a0cd444b20e8fcb8d691584672a22883970a1f3c4342192b9b621185527f123a56a984bd0a15452efd291e792a55f2828c2b0ffbf018ffbb512e4e99299a6020860152600060808601866102e087357f2d51c5e7ffed5232c3ccc58d3b022bbed035aa172ed7b3b7c484d8f39a53c78c7f0ba5a7ccf7c9cb1d0873f9642448989e8d6955532ae919a6f7f392d520ebd098846101d8565b61033060208801357f27f50f9362c01039a887a17282765ab64e7a2c836e4841b488837242471c9d257f28631ba22df69d042b62824ceb40603baab03ccf293bd7e2009a2bd200220298846101d8565b61038060408801357f0815b867bb52bd2482d816a1fe3c32679a5f73d769980d7b0aabef03e6f06bb97f2160d0b42d284f21744ff56688b14f1eab2bc759d70bcbd4688285a15ee28ac0846101d8565b6103d060608801357f245c4804a8091bd243fc34d6d9735da1e4608506b821dbd2a93167d168cc3dd67f2156ec6f94013fd89983e3580d3642e92d8c6e37b4263089e7db264ebd767da8846101d8565b61042060808801357f1f76b07d6403a9341d3ce0a79fa498b8294196434848f474547ca86691130eef7f2e05476f077a54dbb67eaf79460e41617cae3f79bc1480b8d1277b8fe86f5737846101d8565b50823581527f30644e72e131a029b85045b68181585d97816a916871ca8d3c208c16d87cfd4760208401357f30644e72e131a029b85045b68181585d97816a916871ca8d3c208c16d87cfd4703066020820152833560408201526020840135606082015260408401356080820152606084013560a08201527f2d4d9aa7e302d9df41749d5507949d05dbea33fbb16c643b22f599a2be6df2e260c08201527f14bedd503c37ceb061d8ec60209fe345ce89830a19230301f076caff004d192660e08201527f0967032fcbf776d1afc985f88877f182d38480a653f2decaa9794cbc3bf3060c6101008201527f0e187847ad4c798374d0d6732bf501847dd68bc0e071241e0213bc7fc13db7ab6101208201527f304cfbd1e08a704a99f5e847d93f8c3caafddec46b7a0d379da69a4d112346a76101408201527f1739c1b1a457a8c7313123d24d2f9192f896b7c63eea05a9d57f06547ad0cec8610160820152600087015161018082015260206000018701516101a08201527f198e9393920d483a7260bfb731fb5d25f1aa493335a9e71297e485b7aef312c26101c08201527f1800deef121f1e76426a00665e5c4479674322d4f75edadd46debd5cd992f6ed6101e08201527f090689d0585ff075ec9e99ad690c3395bc4b313370b38ef355acdadcd122975b6102008201527f12c85ea5db8c6deb4aab71808dcb408fe3d1e7690c43d37b4ce6cc0166fa7daa610220820152843561024082015260208501356102608201527f05b734cecca0099aa22dbc0bda4e15ddd9039d99747a6ee1a16886b6f1f61f9f6102808201527f10b52a28ee4d2681308d1f8bd902f46f13bd6599be6766e7b3b42e48c9c9c7686102a08201527f2ee9dc156b3f2e7debd5db898e3f117bd2198f157173d74dc70f7df881b722346102c08201527f156bdef96d2331b8d83c6851b1dbb59e529209cea0824a11f8fb0c18f2243b056102e08201526020816103008360086107d05a03fa9051169695505050505050565b604051610380810160405261071860008401356101a4565b61072560208401356101a4565b61073260408401356101a4565b61073f60608401356101a4565b61074c60808401356101a4565b61075960a08401356101a4565b610766818486888a610243565b90508060005260206000f35b806040810183101561078357600080fd5b92915050565b6000806000806101a08086880312156107a157600080fd5b6107ab8787610772565b945060c08601878111156107be57600080fd5b6040870194506107ce8882610772565b9350508681870111156107e057600080fd5b50929591945092610100019150565b6101a081016040808784378083018660005b600281101561081e57838284379183019190830190600101610801565b505050808560c08501375060a08361010084013795945050505050565b60006020828403121561084d57600080fd5b8151801515811461085d57600080fd5b939250505056fea2646970667358221220996adfc5f1647372be805aa990e0384e02dd99d35fbf6caac0d30ca43218db7464736f6c63430008140033",
    "linkReferences": {}
  },
  "methodIdentifiers": {
    "_verifyProof(uint256[2],uint256[2][2],uint256[2],uint256[5])": "5b0797f4",
    "merkleRoot()": "2eb4a7ab",
    "verify(uint256[2],uint256[2][2],uint256[2],uint256[5])": "384e058a",
    "verifyProof(uint256[2],uint256[2][2],uint256[2],uint256[5])": "34baeab9"
  },
  "id": 30
}