{
  "abi": [
    {
      "inputs": [
        {
          "internalType": "uint256[2]",
          "name": "_pA",
          "type": "uint256[2]"
        },
        {
          "internalType": "uint256[2][2]",
          "name": "_pB",
          "type": "uint256[2][2]"
        },
        {
          "internalType": "uint256[2]",
          "name": "_pC",
          "type": "uint256[2]"
        },
        {
          "internalType": "uint256[5]",
          "name": "_pubSignals",
          "type": "uint256[5]"
        }
      ],
      "name": "_verifyProof",
      "outputs": [
        {
          "internalType": "bool",
          "name": "",
          "type": "bool"
        }
      ],
      "stateMutability": "view",
      "type": "function"
    },
    {
      "inputs": [
        {
          "internalType": "uint256[2]",
          "name": "_pA",
          "type": "uint256[2]"
        },
        {
          "internalType": "uint256[2][2]",
          "name": "_pB",
          "type": "uint256[2][2]"
        },
        {
          "internalType": "uint256[2]",
          "name": "_pC",
          "type": "uint256[2]"
        },
        {
          "internalType": "uint256[5]",
          "name": "_pubSignals",
          "type": "uint256[5]"
        }
      ],
      "name": "verifyProof",
      "outputs": [
        {
          "internalType": "bool",
          "name": "",
          "type": "bool"
        }
      ],
      "stateMutability": "view",
      "type": "function"
    }
  ],
  "bytecode": {
    "object": "0x608060405234801561001057600080fd5b50610714806100206000396000f3fe608060405234801561001057600080fd5b50600436106100365760003560e01c806334baeab91461003b5780635b0797f414610062575b600080fd5b61004e610049366004610678565b610075565b604051901515815260200160405180910390f35b61004e610070366004610678565b61008c565b60006100838585858561008c565b95945050505050565b60006105ef565b7f30644e72e131a029b85045b68181585d97816a916871ca8d3c208c16d87cfd4781106100c4576000805260206000f35b50565b600060405183815284602082015285604082015260408160608360076107d05a03fa9150816100fa576000805260206000f35b825160408201526020830151606082015260408360808360066107d05a03fa9150508061012b576000805260206000f35b5050505050565b7f21ffd944c4a0cd444b20e8fcb8d691584672a22883970a1f3c4342192b9b621185527f123a56a984bd0a15452efd291e792a55f2828c2b0ffbf018ffbb512e4e99299a6020860152600060808601866101cf87357f2d51c5e7ffed5232c3ccc58d3b022bbed035aa172ed7b3b7c484d8f39a53c78c7f0ba5a7ccf7c9cb1d0873f9642448989e8d6955532ae919a6f7f392d520ebd098846100c7565b61021f60208801357f27f50f9362c01039a887a17282765ab64e7a2c836e4841b488837242471c9d257f28631ba22df69d042b62824ceb40603baab03ccf293bd7e2009a2bd200220298846100c7565b61026f60408801357f0815b867bb52bd2482d816a1fe3c32679a5f73d769980d7b0aabef03e6f06bb97f2160d0b42d284f21744ff56688b14f1eab2bc759d70bcbd4688285a15ee28ac0846100c7565b6102bf60608801357f245c4804a8091bd243fc34d6d9735da1e4608506b821dbd2a93167d168cc3dd67f2156ec6f94013fd89983e3580d3642e92d8c6e37b4263089e7db264ebd767da8846100c7565b61030f60808801357f1f76b07d6403a9341d3ce0a79fa498b8294196434848f474547ca86691130eef7f2e05476f077a54dbb67eaf79460e41617cae3f79bc1480b8d1277b8fe86f5737846100c7565b50823581527f30644e72e131a029b85045b68181585d97816a916871ca8d3c208c16d87cfd4760208401357f30644e72e131a029b85045b68181585d97816a916871ca8d3c208c16d87cfd4703066020820152833560408201526020840135606082015260408401356080820152606084013560a08201527f2d4d9aa7e302d9df41749d5507949d05dbea33fbb16c643b22f599a2be6df2e260c08201527f14bedd503c37ceb061d8ec60209fe345ce89830a19230301f076caff004d192660e08201527f0967032fcbf776d1afc985f88877f182d38480a653f2decaa9794cbc3bf3060c6101008201527f0e187847ad4c798374d0d6732bf501847dd68bc0e071241e0213bc7fc13db7ab6101208201527f304cfbd1e08a704a99f5e847d93f8c3caafddec46b7a0d379da69a4d112346a76101408201527f1739c1b1a457a8c7313123d24d2f9192f896b7c63eea05a9d57f06547ad0cec8610160820152600087015161018082015260206000018701516101a08201527f198e9393920d483a7260bfb731fb5d25f1aa493335a9e71297e485b7aef312c26101c08201527f1800deef121f1e76426a00665e5c4479674322d4f75edadd46debd5cd992f6ed6101e08201527f090689d0585ff075ec9e99ad690c3395bc4b313370b38ef355acdadcd122975b6102008201527f12c85ea5db8c6deb4aab71808dcb408fe3d1e7690c43d37b4ce6cc0166fa7daa610220820152843561024082015260208501356102608201527f05b734cecca0099aa22dbc0bda4e15ddd9039d99747a6ee1a16886b6f1f61f9f6102808201527f10b52a28ee4d2681308d1f8bd902f46f13bd6599be6766e7b3b42e48c9c9c7686102a08201527f2ee9dc156b3f2e7debd5db898e3f117bd2198f157173d74dc70f7df881b722346102c08201527f156bdef96d2331b8d83c6851b1dbb59e529209cea0824a11f8fb0c18f2243b056102e08201526020816103008360086107d05a03fa9051169695505050505050565b60405161038081016040526106076000840135610093565b6106146020840135610093565b6106216040840135610093565b61062e6060840135610093565b61063b6080840135610093565b61064860a0840135610093565b610655818486888a610132565b90508060005260206000f35b806040810183101561067257600080fd5b92915050565b6000806000806101a080868803121561069057600080fd5b61069a8787610661565b945060c08601878111156106ad57600080fd5b6040870194506106bd8882610661565b9350508681870111156106cf57600080fd5b5092959194509261010001915056fea26469706673582212207a4681b67e39bab6f49cf27612715653b3341385273e05ed5c06e8f7d648a51d64736f6c63430008140033",
    "linkReferences": {}
  },
  "methodIdentifiers": {
    "_verifyProof(uint256[2],uint256[2][2],uint256[2],uint256[5])": "5b0797f4",
    "verifyProof(uint256[2],uint256[2][2],uint256[2],uint256[5])": "34baeab9"
  },
  "id": 29
}